:020000040800F2
:10000000480B0020151D0008090700080B07000811
:100010000D0700080F070008110700080000000086
:1000200000000000000000000000000013070008AE
:10003000150700080000000017070008190700084E
:100040002F1D00082F1D00082F1D00082F1D000860
:100050002F1D00082F1D00082F1D00082F1D000850
:100060002F1D00082F1D00082F1D00082F1D000840
:100070002F1D00082F1D00082F1D00082F1D000830
:100080002F1D00082F1D00082F1D00082F1D000820
:100090002F1D00082F1D00082F1D00082F1D000810
:1000A0002F1D00082F1D00082F1D00082F1D000800
:1000B0002F1D00087F1B00082F1D00082F1D0008A2
:1000C0002F1D00082F1D00082F1D00082F1D0008E0
:1000D0002F1D0008E91C00082F1D00082F1D000817
:1000E0002F1D00082F1D00082F1D00082F1D0008C0
:1000F0002F1D00082F1D00082F1D00082F1D0008B0
:100100002F1D00082F1D00082F1D00082F1D00089F
:100110002F1D00082F1D00082F1D00082F1D00088F
:100120002F1D00082F1D00082F1D00082F1D00087F
:1001300000F002F800F076F80AA090E8000C824483
:100140008344AAF10107DA4501D100F06BF8AFF260
:10015000090EBAE80F0013F0010F18BFFB1A43F0A5
:10016000010318475C7600007C7600000A444FF0DB
:10017000000C10F8013B13F0070408BF10F8014B06
:100180001D1108BF10F8015B641E05D010F8016B4B
:10019000641E01F8016BF9D113F0080F1EBF10F8AF
:1001A000014BAD1C0C1B09D16D1E58BF01F801CBD2
:1001B000FAD505E014F8016B01F8016B6D1EF9D555
:1001C0009142D6D37047000000230024002500266A
:1001D000103A28BF78C1FBD8520728BF30C148BFAA
:1001E0000B607047662907F08680642904F014804C
:1001F000782904F04D80732904F03584002070477D
:100200001FB504F0A7F904000020002106F00AF849
:10021000401C60600020002106F01AF8E0601FBD5D
:1002200010B510BD04F052FD1146FFF7E9FF00F0D4
:1002300025F804F070FD03B4FFF7F2FF03BC01F0F2
:10024000FDFC00002DE9F0410746084606F06CFE73
:10025000D24ED34B324606F057FB04460D46384685
:1002600006F062FE3246CF4B06F04EFB22462B468E
:1002700006F036F8BDE8F04106F000B8A4B001F091
:1002800091FC4FF4A06001F065FD4FF4E13001F006
:10029000DFFC03F012FC41F61F41642001F042FC38
:1002A00003F080F803F069F98246DFF8FCB2BAF196
:1002B000A50F2ED009DCBAF1320F17D0BAF1540FC6
:1002C0002DD0BAF1890F7AD10CE0BAF1E60F03D044
:1002D000BAF1EC0F73D116E0B4A003F067FF00F0A1
:1002E000FEFA9AE0B8A003F061FF96E0BEA003F02A
:1002F0005DFF00F05AFCC349C34800F09CFCC148B4
:1003000000F096FD89E0C1A003F050FF00F093FEDD
:1003100083E0C5A003F04AFF01F0C0F87DE0C9A06A
:1003200003F044FF01F05AFB0024002001F0D2FB4F
:10033000209906F025FE2090012001F0CBFB2199A9
:1003400006F01EFE2190022001F0C4FB229906F067
:1003500017FE2290032001F0BDFB239906F010FE4A
:100360002390142001F04CFC641C0A2CDDDB209847
:1003700006F0DAFD00225B4606F06EF805F07EFF1F
:100380002090219806F0D0FD00225B4606F064F82C
:1003900005F074FF2190229806F0C6FD00225B460E
:1003A00006F05AF805F06AFF2290239806F0BCFD8B
:1003B00000225B4606F050F805F060FF239051469E
:1003C000A7A003F0F3FE28E009DCBAF1000F7DD00E
:1003D000BAF1320F4ED0BAF1540F09D182E0BAF11E
:1003E000A50F78D0BAF1E60F3AD0BAF1EC0F4DD0A4
:1003F00002F0EDFF5A2003F00CF803F090F802F041
:10040000AFFF012001F0FCFB02F0E1FFA52003F0AB
:1004100000F803F084F802F0A3FFBAF1890FD3D1FA
:1004200002A90CA800F0F6FABDF8080006F01CFAC4
:1004300000225B4606F010F804460D460C9806F0C4
:10044000FCF900225B4606F007F802460B468CA03A
:10045000CDE9004503F0AAFE642001F0D1FBDCE702
:1004600000F064FA01468AA003F0A0FE642001F0C7
:10047000C7FBD2E76349644800F0DDFB614800F048
:100480001AFC4FF47A7001F0BBFBC6E700F061FE86
:1004900002460B4682A003F089FE00F0C4FE02462D
:1004A0000B4683A003F082FE00F0BDFE04460D461D
:1004B00000F04FFE22462B4600F0B0FF02460B46EE
:1004C0007FA003F073FE4FF47A7001E058E002E081
:1004D00001F096FBA1E701F051F94FF47A7001F0B9
:1004E0008FFB9AE7002001F0F5FA209906F08EFEC6
:1004F00001461C98FFF7A6FE1C90012001F0EAFAC5
:10050000219906F083FE01461D98FFF79BFE1D9082
:10051000022001F0DFFA229906F078FE01461E98CB
:10052000FFF790FE1E90032001F0D4FA239906F005
:100530006DFE01461F98FFF785FE1F901F9806F07D
:10054000F3FC04460D461E9806F0EEFC06460F46E8
:100550001D9806F0E9FC804689461C9806F0E4FCEC
:100560000246CDE900890B4659A0CDE90267CDE9E5
:10057000044503F01BFE4FF47A7001F041FB4CE799
:1005800002F0FBFF0028A5D05D4908685D4A00F431
:10059000E06010430860BFF34F8FFEE79A99999986
:1005A0009999E93F9999C93F00002440B1BEB4CE62
:1005B000CAB9D3C3B5C4D3B2BCFECAC750414A37C7
:1005C0003632300D0A000000B1BEB4CECAB9D3C372
:1005D000B5C4D3B2BCFECAC753485433305F41449C
:1005E00044520D0A00000000B1BEB4CECAB9D3C354
:1005F000B5C4D3B2BCFECAC74C49533244483132A9
:100600000D0A000098010020AA010020B1BEB4CE5E
:10061000CAB9D3C3B5C4D3B2BCFECAC7424D503267
:1006200038300D0A00000000B1BEB4CECAB9D3C341
:10063000B5C4D3B2BCFECAC74144584C3334350D9F
:100640000A000000B1BEB4CECAB9D3C3B5C4D3B298
:10065000BCFECAC7464443323231340D0A000000A2
:10066000C3BBD3D0B2E9B5BDC8CEBACE494943C6A3
:10067000F7BCFE2121212121212025640D0A000043
:10068000CEC2CAAAB6C8CEAA25662C25660A000024
:10069000BDE1B9FB202D203E2564200D0A0000009D
:1006A000CEC2B6C83B25302E32660D0A00000000CF
:1006B000C6F8D1B93B25302E32660D0A0000000085
:1006C000B8DFB6C83A25302E32660D0A00000000A9
:1006D000444154413A200D0A206368303A2025668F
:1006E0002C206368313A2025662C206368323A203A
:1006F00025662C206368333A202566200D0A000009
:100700000CED00E00400FA057047FEE7FEE7FEE7A7
:10071000FEE7704770477047704700000CB5002235
:10072000019200925248016841F4803101604FF417
:10073000A063016801F4003100910199491C019105
:10074000009911B901999942F3D10168890302D541
:100750000121009100E000920099012930D1454922
:100760000A6842F010020A600A6822F003020A6076
:100770000A6842F002020A604168416041684160D3
:10078000416841F480614160416821F47C1141601D
:10079000416841F4E8114160016841F080710160F5
:1007A00001688901FCD5416821F00301416041687D
:1007B00041F0020141604168C1F381010229FAD18F
:1007C0000CBDABE710B52A48016841F0010101609A
:1007D0004168294A114041600168284A114001607E
:1007E000016821F480210160416821F4FE0141602B
:1007F0004FF41F018160FFF7E4FF21494FF00060D3
:10080000086010BD10B51A4A506800F00C011D4B6D
:100810001D4800290ED004290ED008290ED00360EF
:100820005168194AC1F30311121D515C0268CA4094
:10083000026010BD0360F3E70360F1E7516801F463
:100840007011536803F48033022404EB914133B1F7
:1008500053689B0307D50D4B59430160E0E70B4BF1
:1008600059430160DCE7074B59430160D8E70000BA
:1008700000100240002002400000FFF8FFFFF6FEDB
:1008800008ED00E000127A000000002000093D00A1
:10089000002806D0012809D10122EF21E62002F02C
:1008A0009ABE0022EF21E62002F095BE704710B5F7
:1008B00002F08DFDE62002F0ACFD02F051FD0520B6
:1008C00001F087F90020FFF7E3FF0021E62002F0A6
:1008D0009EFE202801D0002010BD012010BD70B563
:1008E000FFF7E5FFE8B126A003F060FC0020FFF76A
:1008F000CFFF0024274D05EB440015F81410427873
:10090000E62002F068FE641CE4B2332CF3D300202E
:10091000FFF7BEFFFF224121E62002F05CFE01202E
:1009200070BD1DA003F042FC002070BD10B5002476
:100930004321E62002F06BFE102818D008DC0128C5
:100940000DD002280DD004280DD0082816D10CE0B7
:1009500020280ED040280ED080280FD10DE0012491
:100960000CE002240AE0032408E0042406E0052445
:1009700004E0062402E0072400E00824204610BD1D
:10098000BBBDD0D150414A3736323020B3C9B9A6A9
:100990000D0A0000EA730008BBBDD0D150414A37B0
:1009A00036323020CAA7B0DC0D0A000070B505460B
:1009B000FF200023312410E0EA5C504008220606A4
:1009C00003D584EA4000C0B201E04006000E521E8A
:1009D000D2B2002AF3D15B1CDBB28B42ECD370BDE8
:1009E00010B5044602F0F3FC882002F012FD02F07C
:1009F00096FD200A02F00DFD02F091FDE0B202F03A
:100A000008FD02F08CFD02F0ABFCBDE81040322086
:100A100001F0F6B87CB504460E4642F60640FFF7F4
:100A2000DFFF02F0D4FC892002F0F3FC02F077FD36
:100A300002F022FD8DF80000002002F046FD02F0D9
:100A40001BFD8DF80100002002F03FFD02F014FDB7
:100A50008DF80200002002F038FD02F00DFD8DF847
:100A60000300002002F031FD02F006FD8DF80400C5
:100A7000002002F02AFD02F0FFFC8DF805000120A5
:100A800002F023FD02F06CFC02216846FFF78EFFA6
:100A90009DF80210884243D102210DF10300FFF7B7
:100AA00085FF9DF8051088423AD19DF801009DF818
:100AB000001000EB012005F0D7FE00221A4B05F0D4
:100AC00023FF1A4D00222B4605F0C6FC0022184BCE
:100AD00005F006FC0022174B05F016FF05F050FE4E
:100AE00020609DF804009DF8031000EB01204FF4F6
:100AF0007A71484305F0B8FE00222B4605F0ACFCA5
:100B000005F06EFE3080206840F2E241884201DD4F
:100B1000216003E00849884200DA216000207CBDA2
:100B200001207CBD02F03EBC00E06540E0FFEF40EC
:100B3000008046C00000244070FEFFFF10B50A464A
:100B40000146322002F047FD002010BD10B50C46D2
:100B50000146322002F05BFD2070002010BD0B2109
:100B600002E0491EFDD10B21401EFAD1704710B59D
:100B7000034600224FF47A7403E02046FFF7EFFFAC
:100B8000521C9A42F9D310BD10B50A4601463220D4
:100B900002F021FD012010BD10B50C4601463220A7
:100BA00002F035FD2070012010BD10B53721202046
:100BB000FFF7EAFF03212120FFF7E6FFC0212220F3
:100BC000FFF7E2FF88212320FFF7DEFF7F2130209F
:100BD000FFF7DAFF02213220FFF7D6FF032133208F
:100BE000FFF7D2FF01212420FFF7CEFF102139208B
:100BF000FFF7CAFF5F212020FFF7C6FF002010BDCE
:100C00007CB5054600246E4604F128003119C0B2B7
:100C1000FFF7C2FF641CE4B2062CF5D3BDF9000057
:100C200000112880BDF9020000116880BDF90400A0
:100C30000011A8807CBD2DE9F04781460C460025B7
:100C400000260027A8462046FFF7DAFF05EBC5007F
:100C5000B4F9001029F8101009EB4000B4F9022093
:100C60004280B4F904308380881906B2D01907B2E3
:100C700003EB08000FFA80F8CCA003F097FA6D1C84
:100C8000EDB2042DDFD3F01706EB9070801001B2A7
:100C90002180F81707EB9070801002B262804FEA53
:100CA000E87008EB9070801003B2A380BDE8F047B5
:100CB000C7A003F07BBA2DE9F84F0446B4F904004D
:100CC00005F0BBFD4FF0804B00225B4604F098FD21
:100CD00005460E46B4F9020005F0AFFD00225B4662
:100CE00004F08EFD2A46334605F0FAFA05F074FA50
:100CF00005F046FD00B205F0A0FD05460E46B4F92C
:100D0000000005F09AFD2A46334605F0A5FB04F0E5
:100D100067FCBF4F00223B4605F0F6FDDFF8F4828A
:100D2000DFF8F4A24246534605F096FB05F028FD95
:100D3000E080B4F9040005F080FD00225B4604F079
:100D40005FFD05460E46B4F9000005F076FD002271
:100D50005B4604F055FD2A46334605F0C1FA05F01E
:100D60003BFA05F00DFD00B205F067FD05460E46A5
:100D7000B4F9020005F061FD81462A463346009130
:100D800005F06AFB04F02CFC00223B4605F0BCFD9C
:100D90004246534605F060FB05F0F2FC20814846D0
:100DA00000225B46009904F02BFD05460E46B4F97F
:100DB000000005F042FD00225B4604F021FD2A46BA
:100DC000334605F08DFA05F007FA05F0D9FC00B2BC
:100DD00005F033FD05460E46B4F9040005F02DFD7F
:100DE0002A46334605F038FB04F0FAFB00223B4666
:100DF00005F08AFD4246534605F02EFB05F0C0FC87
:100E000003B26381002B09DAB4F90600C0F1B40023
:100E1000E080B4F90800C0F1B4002081B4F90820E2
:100E2000B4F9061001B07D48BDE8F04F03F0BEB93B
:100E30002DE9F84F0446B4F9040005F0FEFC4FF02C
:100E4000804B00225B4604F0DBFC05460E46B4F9FD
:100E5000020005F0F2FC00225B4604F0D1FC2A46B9
:100E6000334605F03DFA05F0B7F905F089FC00B20C
:100E700005F0E3FC05460E46B4F9000005F0DDFC84
:100E80002A46334605F0E8FA04F0AAFB604F002238
:100E90003B4605F039FDDFF87C81DFF87CA1424656
:100EA000534605F0D9FA05F06BFCA081B4F90400B3
:100EB00005F0C3FC00225B4604F0A2FC05460E468A
:100EC000B4F9000005F0B9FC00225B4604F098FC80
:100ED0002A46334605F004FA05F07EF905F050FC89
:100EE00000B205F0AAFC05460E46B4F9020005F072
:100EF000A4FC81462A463346009105F0ADFA04F081
:100F00006FFB00223B4605F0FFFC4246534605F0CE
:100F1000A3FA05F035FCE081484600225B460099C3
:100F200004F06EFC05460E46B4F9000005F085FCA1
:100F300000225B4604F064FC2A46334605F0D0F9F3
:100F400005F04AF905F01CFC00B205F076FC0546F8
:100F50000E46B4F9040005F070FC2A46334605F04D
:100F60007BFA04F03DFB00223B4605F0CDFC4246F7
:100F7000534605F071FA05F003FC03B22382002BFF
:100F800009DAB4F90C00C0F1B400A081B4F90E0084
:100F9000C0F1B400E081B4F90E20B4F90C1001B036
:100FA0001F48BDE8F04F03F001B900006163635FC3
:100FB000783A25642C20206163635F793A25642C9C
:100FC00020206163635F7A3A2564200A00000000F4
:100FD0000D0A206163635F696E666F2E6163635FF4
:100FE000783A25642C206163635F696E666F2E61B9
:100FF00063635F793A25642C206163635F696E6681
:101000006F2E6163635F7A3A2564200D0A00000049
:1010100000806640A7E8482EFF21094010770008AD
:10102000C47600080146EC2002F0F1BA0A460146F7
:10103000EC2002F0D0BA70B5B621E020FFF7F6FF41
:101040000A2000F0DDFDD020FFF7ECFFFE4C207001
:10105000FF21F420FFF7EAFF2021F520FFF7E6FF4C
:101060008820FFF7DFFF05468920FFF7DBFF45EA11
:10107000002060808A20FFF7D5FF05468B20FFF710
:10108000D1FF45EA0020A0808C20FFF7CBFF05466A
:101090008D20FFF7C7FF45EA0020E0808E20FFF794
:1010A000C1FF05468F20FFF7BDFF45EA00202081E4
:1010B0009020FFF7B7FF05469120FFF7B3FF45EA01
:1010C000002060819220FFF7ADFF05469320FFF7D7
:1010D000A9FF45EA0020A0819420FFF7A3FF054661
:1010E0009520FFF79FFF45EA0020E0819620FFF75B
:1010F00099FF05469720FFF795FF45EA00202082DB
:101100009820FFF78FFF05469920FFF78BFF45EAF0
:10111000002060829A20FFF785FF05469B20FFF79D
:1011200081FF45EA0020A0829C20FFF77BFF054657
:101130009D20FFF777FF45EA0020E0829E20FFF721
:1011400071FF05469F20FFF76DFF45EA00202083D1
:1011500070BD2DE9FE4FFA20FFF764FF0446FB2027
:10116000FFF760FF0546FC20FFF75CFF210341EA23
:10117000051141EA1018DFF8D0A2BAF9040005F011
:101180005CFB04460D46BAF8020005F06DFB834691
:101190006FF00902029106F0E2F806460F4640465B
:1011A00005F04BFBCDE900106FF00D0206F0D7F80B
:1011B00032463B4605F0CEFD22462B4605F0A4FB09
:1011C00080468946BAF9060005F037FB04460D460D
:1011D00058466FF00C02029906F0C1F806460F4619
:1011E000DDE900106FF0100206F0B9F832463B4618
:1011F00005F0B0FD02460B4605F086FB22462B4665
:1012000005F082FB42464B4605F06AF80B46024663
:10121000CAE9080103B01046BDE8F04F19460022A4
:101220008A4B05F019B92DE9F84FDFF81CA26FF0D1
:101230000E0BF720FFF7F6FE0446F820FFF7F2FE4C
:101240000546F920FFF7EEFE210341EA051141EAC8
:1012500010100090DAE908014FF0FF3206F07FF835
:1012600000227B4B05F076FD04460D46BAF91200CC
:1012700005F0E3FA06460F4622462B46204629464D
:1012800005F042FB32463B4605F03EFB5A4606F06F
:1012900066F880468946BAF9100005F0CEFA224673
:1012A0002B4605F031FB012206F059F842464B4629
:1012B00005F016F880468946BAF90E0005F0BDFA29
:1012C000102206F04CF806460F466FF00102404629
:1012D000494606F044F832463B4605F001F88046A0
:1012E0008946BAF90A0005F0A8FA22462B4605F00D
:1012F0000BFB06460F46BAF90C0005F09EFA224693
:101300002B4605F001FB22462B4605F0FDFA6FF057
:101310001204224606F023F832463B4604F0E0FF72
:10132000224606F01CF804460D46BAF8080005F0FF
:101330009BFA06460F465A462046294606F00FF805
:101340000022444B04F0CCFF32463B4605F0DCFA69
:1013500004460D46002213462046294605F0D4F9DE
:1013600003D100203C49BDE8F88F009805F065FAEC
:1013700000223A4B05F0FCFB06460F466FF00B02CD
:101380004046494605F0EBFF32463B4605F0F0FB90
:101390000022334B05F0B8FA22462B4605F05CF8E4
:1013A00006460F46BAF9180005F047FA32463B46A2
:1013B00005F0AAFA32463B4605F0A6FA6FF01E0287
:1013C00005F0CDFF04460D46BAF9160005F035FAD2
:1013D00032463B4605F098FA5A4605F0C0FF804673
:1013E0008946BAF9140005F028FA82468B4642462F
:1013F0004B462046294604F073FF52465B4604F0F4
:101400006FFF6FF0030205F0AAFF32463B4604F07F
:1014100067FF06460F4630463946A4E72DE9F041FE
:1014200016461F464FF066320E4B04F059FF044635
:101430000D4632463B4600200B4905F00DF80B4A9D
:101440000B4B04F0DDF915E0180000200000B4405B
:101450000040EF400000F03F0000F0BF00003041CE
:10146000006AB84066127140D0BCF8404A2DEE7D4B
:101470003659C83F0022064B05F06CFC22462B462D
:1014800005F042FABDE8F041024A034B04F0E4BF24
:101490000000F03F39B4C876BE9F7A3F10B50B22EA
:1014A0003121A62002F097F808222D21A62002F073
:1014B00092F880222E21BDE81040A62002F08BB8C1
:1014C0002DE9F05F81468A4693463221A62002F03C
:1014D0009EF804463321A62002F099F805463421EF
:1014E000A62002F094F806463521A62002F08FF8D7
:1014F00007463621A62002F08AF880463721A6202A
:1015000002F085F804EB0521A9F8001006EB07218D
:10151000AAF8001008EB0020ABF80000BDE8F09F2F
:101520002DE9F0478046894692460025002600278F
:101530000024524649464046FFF7C2FF0A2000F009
:101540005FFBB8F80000284405B2B9F80000304449
:1015500006B2BAF80000384407B2641CE4B20A2CA0
:10156000E7D30A2095FBF0F1A8F8001096FBF0F104
:10157000A9F8001097FBF0F0AAF80000BDE8F0878A
:101580002DE9F0410E46074611460020002B04D0FD
:10159000012B24D0022B63D142E0084605F0C4FCA5
:1015A00004460D463146304605F064FD0646394690
:1015B000384605F05FFD314605F0E2FC05F0B4FC6D
:1015C00004F00AFE22462B4604F046FF04F056FEC5
:1015D00005F0AAFC04F004F804F050FE40E00846D0
:1015E00005F048FD04463146304605F043FD2146EE
:1015F00005F0C6FC05F098FC04F0EEFD04460D462F
:10160000384605F091FC22462B4604F025FF04F0F5
:1016100035FE05F089FC03F0E3FF04F02FFE1FE028
:10162000084605F027FD04463946384605F022FDF8
:10163000214605F0A5FC05F077FC04F0CDFD04463D
:101640000D46304605F070FC22462B4604F004FFA0
:1016500004F014FE05F068FC03F0C2FF04F00EFE77
:101660006F4905F007FD05F05FFC6E4A6E4B04F014
:10167000F3FE05F085F800B2BDE8F0812DE9FE4FDC
:1016800080468946924600250026002700222D210B
:10169000A62001F0A0FF642000F0B2FA2B22312135
:1016A000A62001F098FF0A222C21A62001F093FF2A
:1016B00028222D21A62001F08EFF00222E21A62017
:1016C00001F089FF00221E21A62001F084FF0022E4
:1016D0001F21A62001F07FFF00222021A62001F07B
:1016E0007AFF0C2000F08CFA00246A4601A902A8B7
:1016F000FFF716FFBDF80800284405B2BDF8040046
:10170000304406B2BDF80000384407B2641CE4B2AD
:101710000A2CEAD30A2095FBF0F10AB296FBF0F10D
:1017200009B297FBF0F003B25042C21700EB92707F
:10173000800888F800004842C11700EB91708008CB
:1017400089F80000C3F58070C11700EB9170800824
:101750008AF8000098F800201E21A62001F03BFF27
:1017600099F800201F21A62001F035FF9AF80020EB
:101770002021A62001F02FFFBDE8FE8F3EB56A466E
:1017800001A902A8FFF7CCFE6A4601A902A8FFF74B
:1017900097FEBDF9000005F055FC0446BDF90400B4
:1017A00005F050FC0546BDF9080005F04BFC01238F
:1017B00022462946FFF7E4FE01461CA002F0F6FC93
:1017C000BDF9000005F03EFC0446BDF9040005F03B
:1017D00039FC0546BDF9080005F034FC0223224619
:1017E0002946FFF7CDFE014614A002F0DFFCBDF94B
:1017F000000005F027FC0446BDF9040005F022FCBA
:101800000546BDF9080005F01DFC032322462946C4
:10181000FFF7B6FE01460DA002F0C8FC3EBD000079
:10182000000034436E861BF0F9210940416E676C5D
:10183000652078203D2025642C200000416E676CD7
:10184000652079203D2025642C200000416E676CC6
:1018500065207A203D2025642C200D0A0000000020
:10186000082000F0B6B9704738B50121082000F013
:101870003CFDC020ADF8000010208DF803000320CF
:101880008DF802009D4C6946204600F028FBC021DF
:10189000204600F093FB38BD01F099BD01F060BD1A
:1018A00001F03DBE002001F010BE012001F00DBE90
:1018B00001F0AFBD70B5044601F0DEFD05461CB178
:1018C000FFF7F0FF284670BDFFF7EFFFFAE770B5AE
:1018D00006460D461446FFF7DFFF5420FFF7E8FFEA
:1018E000FFF7DEFF18B1FFF7D9FF012070BD3046CA
:1018F000FFF7DEFFFFF7D4FF2846FFF7D9FFFFF71A
:10190000CFFF18B1FFF7CAFF012070BD2046FFF7D7
:10191000CFFFFFF7C5FF18B1FFF7C0FF012070BD73
:10192000FFF7BCFF002070BD70B50446FFF7B4FFA1
:101930005420FFF7BDFFFFF7B3FF2046FFF7B8FFC6
:10194000FFF7AEFFFFF7A8FF5520FFF7B1FFFFF746
:10195000A7FF0120FFF7AEFF05020020FFF7AAFF57
:1019600040EA0504FFF79AFF204670BD10B5002835
:1019700006D001280FD0022818D003282BD120E050
:101980000020FFF7D1FFC0F30B040120FFF7CCFFCD
:1019900040EA04411FE00220FFF7C6FFC0F30B043A
:1019A0000320FFF7C1FF40EA044114E00420FFF7E1
:1019B000BBFFC0F30B040520FFF7B6FF40EA04416C
:1019C00009E00620FFF7B0FFC0F30B040720FFF784
:1019D000ABFF40EA044121F0704010BD70B5FFF745
:1019E00042FFFFF741FF7E20FFF79EFF04467F2066
:1019F000FFF79AFF0546214641A002F0D7FB294692
:101A000042A002F0D3FBA4F5A840493801D0012040
:101A100070BDFB2234210820FFF759FFFB2234213F
:101A20000920FFF754FFFB2234210A20FFF74FFF64
:101A3000FB2234210B20FFF74AFF1B22002110203C
:101A4000FFF745FF1B2200211120FFF740FF1B225B
:101A500000211220FFF73BFF1B2200211320FFF77C
:101A600036FF022220211420FFF731FF022220211D
:101A70001520FFF72CFF022220211620FFF727FF59
:101A8000022220211720FFF722FF002278211E20AA
:101A9000FFF71DFF002278211F20FFF718FF00220B
:101AA00078212020FFF713FF002278212120FFF763
:101AB0000EFF002211461920FFF709FF0D22C22157
:101AC0001B20FFF704FF012214211A20FFF7FFFE5D
:101AD000002070BD10B5FFF749FF0F49086004F002
:101AE000C3FE02460B460D480D4904F0B5FC04F058
:101AF000C5FBBDE81040014605F0BCBA000C014032
:101B0000443A202020307825780D0A00453A2020DC
:101B100020307825780D0A0040000020DBF97E6A2D
:101B2000B8A8AB417FB504460D460121022000F064
:101B3000E7FBADF80840ADF804500024ADF80A40CA
:101B4000ADF80640164D01A9284600F0DBFE012243
:101B50001146284601F0C1F91D218DF800108DF8BD
:101B6000014003218DF8021001218DF80310684611
:101B700000F0F5F80121284601F095F97FBD10B578
:101B8000074C0121204601F0DBFB002807D001F0C3
:101B90009FFF2046BDE81040012101F0DDBB10BDD4
:101BA0000004004010B56FF0040000F01BF920485D
:101BB00020490068B0FBF1F01F49C0B2087000EB8B
:101BC0004002C2EBC0104FF6FF7202EAC00048802C
:101BD00010BD1949097848434FF0E02148610023BE
:101BE0008B61086940F0010008610869C20701D0F3
:101BF000C003FAD5086920F0010008618B617047C5
:101C00000D49498848434FF0E021486100238B612A
:101C1000086940F0010008610869C20701D0C003EB
:101C2000FAD5086920F0010008618B617047000057
:101C30000000002000127A00440000207047334961
:101C40000A885206FCD5314AC1B2121D1180704774
:101C500070B586B00546012144F2040000F045FB52
:101C60004FF40070ADF8140003248DF816401821CD
:101C70008DF81710264E05A9304600F030F93115C1
:101C8000ADF8141004218DF8171005A9304600F0A6
:101C900026F925208DF800008DF801408DF80240CE
:101CA00001208DF80300684600F059F801950020E6
:101CB000ADF80800ADF80A00ADF80C00ADF8100062
:101CC0000C20ADF80E00114C01A9204600F0ACFB31
:101CD000012240F22551204600F02DFC0121204632
:101CE00000F01DFC06B070BD10B5084C40F2255147
:101CF000204600F0EDFC002807D0204600F074FCE0
:101D0000C0B2BDE8104001F0A7BE10BD00380140D0
:101D1000000801400948804709480047FEE7FEE700
:101D2000FEE7FEE7FEE7FEE7FEE7FEE7FEE7FEE78B
:101D300004480549054A064B70470000C5070008DE
:101D40003101000848050020480B0020480700200A
:101D5000480700202A4908432A490860704770B59F
:101D60000F23C27801260178002A1ED0254A126866
:101D700002F4E062C2F5E062120AC2F10404D34048
:101D80004578A54082781A402A43120101F1E021EA
:101D900081F80024007800F01F018E404009800087
:101DA00000F1E020C0F8006170BD01F01F00864026
:101DB0004809800000F1E020C0F8806170BD124A3F
:101DC000114001430F48001F016070470D4A121D6A
:101DD000002903D0116801431160704711688143E5
:101DE000116070474FF0E021042804D0086920F00A
:101DF000040008617047086940F0040008617047FA
:101E00000000FA050CED00E080FFFF1F10B59C49B3
:101E1000884209D10121042000F07DFA0021BDE8AB
:101E20001040042000F077BA9649884209D1012178
:101E3000082000F070FA0021BDE81040082000F0F2
:101E40006ABA9149884209D10121102000F063FA51
:101E50000021BDE81040102000F05DBA8B49884297
:101E600009D10121202000F056FA0021BDE81040E0
:101E7000202000F050BA8649884209D10121402033
:101E800000F049FA0021BDE81040402000F043BABC
:101E90008049884209D10121802000F03CFA0021CC
:101EA000BDE81040802000F036BA7B4988420AD154
:101EB00084150121204600F02EFA2046BDE810408E
:101EC000002100F028BA10BD10B50121084600F02D
:101ED00022FA0021BDE81040012000F01CBA2DE9D3
:101EE000F0410022CC7804F00F03E40601D58C7891
:101EF00023430C784FF00F0714F0FF0F4FF0010C45
:101F00001CD005680CFA02F40E882640A64211D1B6
:101F1000960007FA06F825EA080503FA06F848EAE3
:101F20000505CE78282E02D0482E02D002E044616A
:101F300000E00461521C082AE4D305600A88FF2AE5
:101F40001ED94568002202F108060CFA06F40E8834
:101F50002640A64210D1960007FA06F825EA0805A1
:101F600003FA06F848EA0505CE78282E00D1446128
:101F7000CE78482E00D10461521C082AE3D3456074
:101F8000BDE8F0814FF6FF710180022181700421CC
:101F9000C17070470246002092680A4200D00120BA
:101FA0007047806880B2704702460020D2680A42BB
:101FB00000D001207047C06880B27047016170474F
:101FC00041617047002A01D001617047416170474B
:101FD000C160704741F480328261816182618169B0
:101FE0008069704710B52D4B1A684FF680742240F7
:101FF00042EA00100843186010BD2949C8617047C3
:10200000F0B5264C002801DAE36900E06368C0F30C
:102010000346420D120185B2C0F301579540032FCC
:1020200007D0C2020CD50322B240934343F0706242
:1020300009E023F07062636823F07063636002E07C
:10204000AB4343F0706201B12A43002801DAE26138
:10205000F0BD6260F0BD10B58A07120F0F239340E8
:1020600021F003040D4921448C689C438C608B68EB
:10207000904003438B6010BD0949DC310860704714
:1020800000080140000C0140001001400014014014
:1020900000180140001C01400020014000000140E8
:1020A00000002042B448016841F00101016041682C
:1020B000B24A114041600168B14A114001600168B3
:1020C00021F480210160416821F4FE0141604FF458
:1020D0001F0181607047A8490A6822F480320A60B3
:1020E0000A6822F480220A60B0F5803F07D0B0F57C
:1020F000802F03D1086840F4A0200860704708686A
:1021000040F48030086070470346002059099A4A1D
:1021100001290AD002290AD0516A03F01F020123C3
:1021200093400B4200D0012070471168F5E7116A17
:10213000F3E718B5002000904FF4A0643120FFF7BA
:10214000E3FF0099491C00910099A14201D00028A9
:10215000F4D03120FFF7D8FF08B1012018BD0020CE
:1021600018BD854A116821F0F80141EAC0001060ED
:1021700070478449086070477F4B5A6822F47C128C
:1021800008431043586070477E49086670477A4A92
:10219000516821F00301014351607047764840685F
:1021A00000F00C007047744A516821F0F0010143BF
:1021B00051607047704A516821F4E06101435160F9
:1021C00070476D4A516821F4605141EAC000506087
:1021D0007047694A002903D0517A01435172704710
:1021E000517A8143517270476649D831086070470F
:1021F000614A516821F440410143516070475E4992
:10220000002220310A7001F82029012805D0042875
:1022100002D1052081F820007047012081F82000BC
:10222000704759490860704753490A6A02430A6275
:102230007047554944390860704710B54E4A516897
:1022400001F00C01514B002927D0042927D008297F
:1022500027D00360516801F0F00109094C4B5C5C28
:102260000168E1404160546804F4E064240A1C5DA4
:1022700021FA04F48460546804F46054E40A1B5D99
:10228000D940C160526802F44042920B404B1B1F80
:102290009A5CB1FBF2F1016110BD0360DAE7036003
:1022A000D8E7516801F47011536803F480330224B5
:1022B00004EB914133B153689B0307D5354B594328
:1022C0000160C7E7334B59430160C3E72F4B5943C4
:1022D0000160BFE7284A002903D0516901435161D9
:1022E00070475169814351617047234A002903D0E7
:1022F0009169014391617047916981439161704790
:102300001D4A002903D0D1690143D1617047D169C9
:102310008143D1617047184A002903D0D168014335
:10232000D1607047D1688143D1607047124A00295B
:1023300003D0116901431161704711698143116133
:10234000704711494039086070470E49C8647047AA
:102350000949C87170470848416A41F0807141627B
:10236000704701460020044A92680A4200D00120CA
:102370007047014988727047001002400000FFF862
:10238000FFFFF6FE000042428004424200127A0043
:102390005000002000093D0010B5E14988420AD1F3
:1023A00001218C032046FFF7B6FF2046BDE8104010
:1023B0000021FFF7B0BFDB4988420AD101214C045C
:1023C0002046FFF7B3FF2046BDE810400021FFF78D
:1023D000ADBFD54988420AD101218C042046FFF7C0
:1023E000A5FF2046BDE810400021FFF79FBFCF4961
:1023F00088420AD10121CC042046FFF797FF2046EE
:10240000BDE810400021FFF791BFC94988420AD1B9
:1024100001210C052046FFF789FF2046BDE810404A
:102420000021FFF783BF10BD30B585B004460D46CF
:10243000208A4CF6FF710840E98801432182A08977
:102440004EF6F3110840A9882A8911436A8902438C
:102450001143A181A08A4FF6FF410840A989014399
:10246000A1826846FFF7E9FEAD48844201D1039896
:1024700000E00298A189090408D500EBC00101EB36
:10248000001029684900B0FBF1F007E000EBC00143
:1024900001EB001029688900B0FBF1F06422B0FB69
:1024A000F2F109010B096FF018056B4300EB830093
:1024B000A3891D044FF0320307D503EBC000B0FB26
:1024C000F2F000F00700084306E003EB0010B0FB59
:1024D000F2F000F00F000843208105B030BD4FF44A
:1024E0001651016000218180C18001810C2242814E
:1024F0008181704710B5038A4FF2FF0213400A88AA
:102500004C8822438C88C9880C4322431A43028298
:1025100010BD0021018041808180C1807047002969
:1025200004D0818941F4005181817047818921F46F
:1025300000518181704710B540F66A13C1F3421310
:1025400001F01F040121A140012B07D0022B07D06D
:1025500014303AB102680A43026010BD0C30F8E74B
:102560001030F6E702688A43026010BD002A03D0EB
:10257000828A0A4382827047828A8A4382827047B3
:10258000028A22F00F020282028A0A430282704704
:10259000828922F40062828182890A4382817047A3
:1025A000002904D0818941F002018181704781892D
:1025B00021F0020181817047028A22F0200202820A
:1025C000028A0A4302827047002904D0018A41F43A
:1025D000804101827047018A21F480410182704765
:1025E000C1F30801818070478088C0F308007047FC
:1025F000818941F0010181817047028BD2B202834F
:10260000028B42EA012101837047028B02F47F4270
:102610000283028B0A4302837047002904D0818A17
:1026200041F0200181827047818A21F0200181825E
:102630007047002904D0818A41F0100181827047DF
:10264000818A21F0100181827047002904D0818A9B
:1026500041F0080181827047818A21F0080181825E
:102660007047002904D0818941F40041818170477D
:102670008189C1F30E0181817047002904D0818ACC
:1026800041F4006181827047818A21F40061818276
:102690007047828A22F004028282828A0A438282FE
:1026A0007047002904D0818A41F00201818270477D
:1026B000818A21F00201818270470246002012883F
:1026C0000A4200D0012070478A05C9430180704743
:1026D00070B5002440F66A12C1F3421301F01F05E1
:1026E000012606FA05F2012B0CD0022B0DD0838AAD
:1026F0001340090A8E40008830400BB100B101241C
:10270000204670BD83891340F3E7038A1340F0E746
:1027100040F66A120A0A01219140C94301807047BC
:10272000003801400044004000480040004C004098
:102730000050004010B5FE4988420AD1C41401215E
:102740002046FFF7E8FD2046BDE810400021FFF7D6
:10275000E2BDB0F1804F0CD0F649884213D101217F
:102760000220FFF7E3FD0021BDE810400220FFF743
:10277000DDBD01210846FFF7D9FD0021BDE810406D
:102780000120FFF7D3BDEC49884209D10121042083
:10279000FFF7CCFD0021BDE810400420FFF7C6BDC7
:1027A000E649884209D101210820FFF7BFFD002139
:1027B000BDE810400820FFF7B9BDE149884209D1C2
:1027C00001211020FFF7B2FD0021BDE810401020CC
:1027D000FFF7ACBDDB49884209D101212020FFF77A
:1027E000A5FD0021BDE810402020FFF79FBDD64980
:1027F00088420AD1441401212046FFF78CFD20466F
:10280000BDE810400021FFF786BDD04988420AD1BB
:102810000121CC042046FFF77EFD2046BDE8104094
:102820000021FFF778BDCA4988420AD101210C0571
:102830002046FFF770FD2046BDE810400021FFF75D
:102840006ABDC44988420AD101214C052046FFF7E0
:1028500062FD2046BDE810400021FFF75CBDBE4987
:10286000884209D101214020FFF760FD0021BDE829
:1028700010404020FFF75ABDB849884209D10121D4
:102880008020FFF753FD0021BDE810408020FFF7B6
:102890004DBDB34988420AD1841501212046FFF776
:1028A00045FD2046BDE810400021FFF73FBDAD4982
:1028B00088420AD101210C042046FFF72CFD204656
:1028C000BDE810400021FFF726BDA74988420AD184
:1028D00001214C042046FFF71EFD2046BDE81040B4
:1028E0000021FFF718BDA14988420AD101218C04BB
:1028F0002046FFF710FD2046BDE810400021FFF7FD
:102900000ABD10BD30B50288894C8F4DA0420DD054
:10291000A8420BD0B0F1804F08D0864B984205D02A
:10292000854B984202D0854B984203D122F0700328
:102930004A881A43824B984206D0824B984203D071
:1029400022F44073CA881A4302808A8882850A88E2
:102950000285A0420AD0A84208D0824A904205D0FF
:10296000814A904202D0814A904201D1097A01867F
:102970000121818230BD30B5028C22F00102028437
:10298000028C8388048B24F0700424F003050C88E7
:102990002C4322F002020D8915434A882A43644DD4
:1029A000A8420BD0684DA84208D06E4DA84205D071
:1029B0006D4DA84202D06D4DA8420FD122F00805FE
:1029C0004A892A4322F004058A882A4323F4807323
:1029D00023F400738D891D43CB892B4383800483AB
:1029E000C9888186028430BD70B5028C22F0100245
:1029F0000284028C8388048B24F4E04424F440761F
:102A00000D884FF6FF7404EA0525354322F02002B5
:102A10000E8904EA061616434A8804EA0212324373
:102A2000434EB04202D0484EB04217D122F080024D
:102A30004E8904EA0616164326F040068A8804EA00
:102A40000212324323F4806323F400638E8904EA84
:102A500086061E43CB8904EA8303334383800583C0
:102A6000C9880187028470BD70B5028C22F480721F
:102A70000284028C8388848B24F0700424F0030485
:102A80000D88254322F400720E894FF6FF7404EA84
:102A9000062616434A8804EA02223243244EB042F4
:102AA00002D0294EB04217D122F400664A8904EAC6
:102AB0000222324322F480668A8804EA02223243E8
:102AC00023F4805323F400538E8904EA06161E4330
:102AD000CB8904EA0313334383808583C9888187C4
:102AE000028470BD70B5028C22F480520284058C81
:102AF0008288838B23F4E04323F440760C884FF6DE
:102B0000FF7303EA0424344325F400550E8903EAD5
:102B100006362E434D8803EA05353543044EB04250
:102B200002D0094EB04226D122F480468A891FE0A5
:102B3000002C01400004004000080040000C004050
:102B4000001000400014004000340140004C0140DF
:102B5000005001400054014000180040001C00409B
:102B60000020004000400140004401400048014076
:102B700003EA8212324382808483C988A0F840101D
:102B8000058470BD828B22F440628283828B4FF673
:102B9000FF7303EA01210A4382837047F0B5048C76
:102BA00024F480540484868B048C4FF6FF7505EA68
:102BB000013726F4734605EA0222324305EA03335D
:102BC0001343F74A90420ED0F64A90420BD0B0F130
:102BD000804F08D0F44A904205D0F44A904202D087
:102BE000F34A904205D124F40051394341F4805115
:102BF00004E024F402420A4342F4805183830184B6
:102C0000F0BD828B22F00C028283828B0A43828386
:102C10007047F0B5048C24F480740484858B048C94
:102C20004FF6FF7707EA012625F0F30507EA0313BD
:102C300013432B43DA4A90420ED0DA4A90420BD02B
:102C4000B0F1804F08D0D84A904205D0D74A904280
:102C500002D0D74A904205D124F40071314341F4A7
:102C6000807104E024F420620A4342F4807183837B
:102C70000184F0BD028B22F440620283028B4FF686
:102C8000FF7303EA01210A4302837047F0B5048C05
:102C900024F010040484068B048C4FF6FF7505EABB
:102CA000011726F4734605EA0333334305EA02228B
:102CB0001A43BB4B98420ED0BA4B98420BD0B0F19E
:102CC000804F08D0B84B984205D0B84B984202D0FC
:102CD000B74B984205D124F02001394341F010014F
:102CE00004E024F0A0030B4343F0100102830184AD
:102CF000F0BD028B22F00C020283028B0A43028396
:102D0000704770B5048C24F001040484058B048C96
:102D100025F0F3054FF6FF7606EA031313432B4322
:102D20009F4A90420ED09F4A90420BD0B0F1804F04
:102D300008D09D4A904205D09C4A904202D09C4ABD
:102D4000904205D124F002020A4342F0010104E05E
:102D500024F00A020A4342F001010383018470BD9A
:102D600070B505460C468E48854209D08D4885428F
:102D700006D0B5F1804F03D08B48854200D08B48F8
:102D800020886188A288238958B1042811D0082896
:102D900017D02846FFF702FFE1882846BDE87040BB
:102DA000F0E62846FFF7ADFFE1882846BDE8704011
:102DB0009FE72846FFF76AFFE1882846BDE8704094
:102DC00058E72846FFF725FFE1882846BDE8704010
:102DD00017E72DE9F04107460C46002501266188DA
:102DE000002900D10225A288012A00D102262088CC
:102DF000238988B13846FFF749FFE1883846FFF755
:102E000039FF2389324629463846FFF77AFFE188A1
:102E10003846BDE8F0416CE73846FFF772FFE188BD
:102E20003846FFF766FF2389324629463846FFF7C2
:102E30002DFFE1883846BDE8F0411BE710B50A8850
:102E40004B88CC881A438B8823431A430B891A4337
:102E50004B8989891A430A43A0F8442010BD4FF6D4
:102E6000FF71818000210180C18041800172704723
:102E70000021018041808180C18001814181818167
:102E8000C181704700210180418001228280C18080
:102E9000018170470021018041808180C1800181D2
:102EA000418181817047002904D0018841F00101EE
:102EB00001807047018821F00101018070470029DD
:102EC00005D030F8441F41F400410180704730F8CC
:102ED000441FC1F30E0101807047002A03D082898C
:102EE0000A438281704782898A4382817047818246
:102EF00070471143A0F848107047002A03D0828918
:102F00000A438281704782898A438281704701899E
:102F100021F0070101817047028922F070020A4303
:102F20000281704700B503461846FFF7F5FF188980
:102F300040F00700188100BD70B50D4604461146EB
:102F4000602D0CD001222046FFF7DBFE29462046EB
:102F5000FFF7E2FF208940F00700208170BD0122C9
:102F60002046FFF793FEF1E730B50489E4B24FF64F
:102F7000FF7505EA032313430B432343038130BD4D
:102F800010B504462046FFF7EFFF208920F0070028
:102F900040F0070020F0700040F07000208110BD6C
:102FA000002C0140003401400004004000080040B3
:102FB000000C004010B504462046FFF7D5FF2089DD
:102FC00040F480402081EAE70185828270470288D0
:102FD00022F070020A430280704770B50589048BA5
:102FE000068C25F007050D434FF6FC410C4040F2DE
:102FF00001110C4326F022064FF6FF7101EA03117E
:103000001143314305810483018470BD028B22F09A
:1030100070020A4302837047028B22F4E0424FF6AB
:10302000FF7303EA0121114301837047828B22F071
:1030300070020A4382837047828B22F4E0424FF68B
:10304000FF7303EA0121114381837047002904D0F3
:10305000018841F0800101807047018821F08001E2
:1030600001807047002904D0818841F004018180EB
:103070007047818821F0040181807047002904D0C5
:10308000818841F0080181807047818821F0080122
:1030900081807047002904D0818841F0010181803E
:1030A0007047818821F0010181807047028B22F0F6
:1030B00008020A4302837047028B22F400624FF633
:1030C000FF7303EA0121114301837047828B22F0D1
:1030D00008020A4382837047828B22F400624FF613
:1030E000FF7303EA0121114381837047028B22F0B1
:1030F00004020A4302837047028B22F480624FF677
:10310000FF7303EA0121114301837047828B22F090
:1031100004020A4382837047828B22F480624FF656
:10312000FF7303EA0121114381837047028B22F070
:1031300080020A4302837047028BC2F30E024FF6ED
:10314000FF7303EA0121114301837047828B22F050
:1031500080020A4382837047828BC2F30E024FF6CD
:10316000FF7303EA0121114381837047028C22F02F
:1031700002020A4302847047028C22F008020A43CA
:1031800002847047028C22F020024FF6FF7303EA9C
:103190000111114301847047028C22F080024FF626
:1031A000FF7303EA0111114301847047028C22F47A
:1031B00000724FF6FF7303EA012111430184704747
:1031C000028C22F400624FF6FF7303EA01211143DF
:1031D00001847047028C22F400524FF6FF7303EA19
:1031E000013111430184704710B501238B40048CD9
:1031F0009C430484038C8A4013430384CFE610B5B8
:1032000004238B40048C9C430484038C8A40134326
:103210000384C4E630B500F1180301248C40058C0A
:10322000A5430584002911D008290FD0091FC1F337
:103230004E001844016821F4E041016001684FF636
:10324000FF7303EA02221143016030BD03EB51001A
:10325000016821F07001016001681143016030BD17
:10326000002904D0018841F00201018070470188E3
:1032700021F0020101807047002904D0018841F04B
:10328000040101807047018821F00401018070472A
:10329000002904D0818841F08001818070478188B5
:1032A00021F0800181807047028822F008020280AC
:1032B00002880A4302807047828822F0700282806E
:1032C00082880A4382807047028922F007020281C5
:1032D00002890A4302817047028922F0800202813A
:1032E00002890A4302817047818470478185704753
:1032F000818670470187704781877047A0F840102A
:103300007047028822F44072028002880A430280D9
:103310007047808E7047008F7047808F7047B0F87D
:1033200040007047808C7047008D70470246002037
:10333000128A0A4200D001207047C94301827047B7
:1033400002460020138A0B4092890A40002B02D0CB
:10335000002A00D001207047C94301827047000055
:1033600010B5BB4C206820F070402060206840F011
:103370004050206040212046FEF722FE802120465A
:10338000FEF71EFE0420FEF724FC40212046FEF737
:1033900015FE80212046FEF711FEBDE810400420F6
:1033A000FEF717BC08B501210820FEF79EFFC020DC
:1033B000ADF8000003208DF8020010208DF8030006
:1033C0006946A348FEF78BFDFFF7CAFF08BD10B59D
:1033D0009F4C206820F070402060206840F04050F2
:1033E000206080212046FEF7E9FD40212046FEF7BF
:1033F000E5FD0420FEF7EDFB80212046FEF7E0FD11
:103400000420FEF7E6FB2046BDE810404021FEF711
:10341000D7BD70B505468E4E3046316821F07041FB
:103420003160016841F0405101604021FEF7C8FD64
:103430000024280604D580213046FEF7BFFD03E0B6
:1034400080213046FEF7BCFD6806050E0220FEF71F
:10345000C0FB40213046FEF7B1FD0220FEF7B9FB6C
:1034600040213046FEF7ACFD0220FEF7B2FB641CA3
:10347000E4B2082CDDD370BD70B50024744E306802
:1034800020F070403060306840F00040306000252F
:1034900040213046FEF794FD0220FEF79AFB4021C2
:1034A0003046FEF78BFD6006040E80213046FEF7A5
:1034B00071FD08B1641CE4B20120FEF78AFB6D1CAB
:1034C000EDB2082DE4D3204670BD70B50546604CC2
:1034D00040212046FEF774FD206820F070402060F7
:1034E000206840F040502060012D13D080212046FC
:1034F000FEF766FD0220FEF76CFB40212046FEF73A
:103500005DFD0220FEF765FB2046BDE870404021CE
:10351000FEF756BD80212046FEF750FDEAE770B564
:1035200000244B4D286820F070402860286840F047
:103530000040286080212846FEF740FD0120FEF76C
:1035400048FB40212846FEF739FD0120FEF741FBEC
:1035500007E0641CE4B2FA2C03D9FFF701FF012055
:1035600070BD80212846FEF715FD0028F1D14021CD
:103570002846FEF725FD002070BD70B5002500240B
:10358000FF2634A000F012FEFFF721FF2846FFF7C8
:1035900040FFFFF7C4FF50EAC47101D058B112E0F8
:1035A000294634A000F002FE641CE4B2FF2E0AD1CA
:1035B0004DB12E4607E0E00705D0294633A000F0C4
:1035C000F5FD641CE4B2FFF7CBFE6D1CEDB2FF2DE0
:1035D000DAD3304670BD70B506460C461546FFF787
:1035E000F6FE3046FFF715FFFFF799FF2046FFF77D
:1035F00010FFFFF794FF2846FFF70BFFFFF78FFF41
:10360000FFF7AEFEBDE870400520FEF7E2BA70B5E8
:1036100004460D46FFF7DBFE2046FFF7FAFEFFF7F4
:103620007EFF2846FFF7F5FEFFF779FFFFF7CFFE95
:1036300044F00100FFF7EDFEFFF771FFFFF71CFFFD
:1036400004460120FFF741FFFFF78AFE204670BDC8
:10365000000C01400D0A5374617274207363616E33
:103660006E696E67204949432064657669636573B6
:103670000D0A00000D0A7772697465206164647236
:10368000203D2030782578204F4B2000202D3E20F3
:10369000726561642061646472203D203078257811
:1036A0000D0A00000346002000E0401C0A5C9A421C
:1036B00001D0002AF9D1095C002900D1481E7047C9
:1036C000002141604A1E028000F10802895400F87E
:1036D000E41F41707047002141604A1E20F8082B0A
:1036E000095470472DE9F04105460C4604F1D00617
:1036F00094F8E500002807D00027022823D084F89A
:10370000E5702846BDE8F08122492846FFF7CAFF48
:10371000002808DB1F496C3151F820100029F0D037
:1037200020468847EDE71B2D04D02946204600F0AF
:103730003FF8E6E70220E434607020788555207871
:10374000401C2070DDE794F8E4008555A5F1610088
:1037500019280CD92030192809D97E2D07D094F8C2
:10376000E400122812D904F8E47F6770C9E7094918
:103770002846491DFFF796FF06491C3151F82010D5
:103780002046884704F8E47F6770BAE7401C84F855
:10379000E400B6E75074000870B505460E460024F4
:1037A00003E0285D00F082F9641CB442F9D370BDD7
:1037B000F0B442680025B0F9003000F10804C62AD0
:1037C0001ED2934204D307E08318DE791E72521E84
:1037D000B0F900309342F7D30288521C12B2028033
:1037E00043685B1C4360115541680D55B0F90010EA
:1037F0004068491C81420AD2F0BC86A000F0D6BCC9
:10380000C5214160C52B01D3C42202800D55F0BCF7
:10381000704770B50546002405E0281990F8D000DF
:1038200000F044F9641C95F8E400A042F5D870BD9E
:103830000D2000F03BB94FF0FF31018000214160C5
:103840007648018D4185704710B5B0F90010002908
:1038500004DA10BD4218537A1372491C42688A4236
:10386000F8D80188491E01804168491E416008203E
:1038700000F01CF9BDE8104069A000F097BC70B5DD
:103880000446664D688D002821D0B4F9001066A06A
:10389000491C00F08BFC66A000F088FC04F10802D3
:1038A000698D164605F1240000F0EFFB304600F06C
:1038B000EDFD01466060481E20803046FFF76CFF3A
:1038C000688D401E80B2688500B9288D688570BDFE
:1038D00070B50446514D688D002823D0B4F900100E
:1038E00051A0491C00F062FC51A000F05FFC04F103
:1038F0000802698D164605F1240000F0C6FB30462B
:1039000000F0C4FD01466060481E20803046FFF78D
:1039100043FF688D401C80B26885298D884200D99C
:103920000120688570BDB0F90010002904DB491E34
:10393000018040A000F03ABC70474268B0F9001026
:10394000521E914204DA491C01803CA000F02EBCBA
:10395000704770B5044604F108010E462F4800F088
:1039600071FB0546002D38D06068B8B1B4F900107D
:103970002DA0491C00F01AFC2DA000F017FC2846D1
:1039800000F084FD6060401E20802946304600F033
:1039900059FD30466168BDE87040FDE629A000F0A1
:1039A00005FC00241D4D0C2609E000EB810126A03A
:1039B00000F0FCFB23A000F0F9FB641CE4B204EB74
:1039C0008401286A06EB81028258002AEDD1BDE805
:1039D000704012491CA000F0E9BB70BD90F8D210F5
:1039E000332915D1B0F90010491C03E04218537A6D
:1039F0001372491C42688A42F8D84168B0F9003015
:103A00000AB29A4204DD491E4160042104A0C3E6C3
:103A1000704700001B5B3140000000006000002088
:103A20001B5B3150000000001B5B2564440000005C
:103A30001B5B4B001B5B3144000000001B5B3143F0
:103A4000000000000D0A00002573000000216848F6
:103A5000018041808180704765498A88B2F5007F86
:103A600002D34FF0FF307047614A4B88921D985443
:103A70004888401CC0F3080048808888401C888023
:103A80000020704710B55A4B998800290BD01A882E
:103A90009C1D145D0470521CC2F308001880491E5E
:103AA0009980002010BD4FF0FF3010BD51490880B3
:103AB000081F01884906FCD5704710B5FFF7C6FFFF
:103AC0004D48FFF7FDFDBDE810404C4800F0C2B97D
:103AD00038B5494C08340DE047499DF80000FFF720
:103AE00001FE0A2806D12146444800F03CFA42482B
:103AF000FFF7F1FD6846FFF7C5FF0028ECD038BDA1
:103B000070B50D46002401284ED9687841193CA0B3
:103B100000F0DCFC00281ED0687841193AA000F0C3
:103B2000D5FC00282CD06878411938A000F0CEFCD4
:103B3000002824D136A000F039FB3BA000F036FB72
:103B40003CA000F033FB40A000F030FBBDE870402B
:103B500043A000F02BBB294D0C2608E000EB8101AF
:103B600047A000F023FB2FA000F020FB641C04EB17
:103B70008401286A06EB81028258002AEED170BDCA
:103B800040A000F013FB44A000F010FB47A000F0A1
:103B90000DFB49A000F00AFB48A000F007FBBDE8C0
:103BA000704020A000F002BBBDE8704046A000F0CD
:103BB000FDBA70B506460D464AA000F0F7FA00249B
:103BC00006E0285D214642194AA000F0EFFA641C85
:103BD000B442F6D370BD012080F3138849480168D0
:103BE000494A01F4E06111430160BFF34F8FFEE7E2
:103BF000DC02002004380140F401002060000020B5
:103C00002D636D64000000002D7600002D6800001B
:103C10007573656167653A206C73205B6F707469BA
:103C20006F6E735D0D0A00006F7074696F6E733A8A
:103C3000200D0A0009202D6820093A2073686F774B
:103C40002068656C700D0A0009202D7620093A2045
:103C500073686F772076657273696F6E0D0A000066
:103C60000920636D6420093A2073686F7720616CC6
:103C70006C20636F6D6D616E64730D0A000000004F
:103C8000257300006C732076657273696F6E203146
:103C90002E302E0D0A000000CFEEC4BFB1E0D2EBF3
:103CA000CAB1BCE4CEAA3A200000000030393A3450
:103CB000373A3037000000002000000053657020C4
:103CC00032332032303232006C73206E65656420EE
:103CD0006D6F726520617267756D656E7473210D0D
:103CE0000A0000007465737420636F6D6D616E640B
:103CF0003A0D0A0070617261732025643A202573C1
:103D00000D0A00000CED00E00400FA05F0B588B0E3
:103D1000002300266D46EE545B1C202BFBDB0127A5
:103D200011F8013B05EBD30403F0070294F800C03F
:103D300007FA02F24CEA020C84F800C0002BEFD123
:103D4000F24B08B1024602E01A6800E0521C1078FB
:103D500005EBD00100F00704097807FA04F42142CA
:103D600001D00028F2D110460CE005EBD10401F09F
:103D70000701247807FA01F10C4202D002F8016B26
:103D800003E0521C11780029EFD11A60904200D153
:103D9000002008B0F0BD2DE9F04104460E46304643
:103DA00000F074FB85B2FD2D4AD804F10E0318E033
:103DB0002088401C80B22080032800D90020208069
:103DC000A288521EA2802289C75CBA4203D8BA1ABE
:103DD000891AA18103E0BA1A891AFE39A181C05C4F
:103DE0002081A189C1F1FD00A842E1DBA088032860
:103DF000DED06188A07AC8546088401C80B26080A0
:103E0000032800D900206080A088401CA0800020EA
:103E100004F112070FE06289315CD1556189491CB8
:103E20008AB26281FD2A00D900226281A189491CDF
:103E3000A181401C80B2A842EDD36188A07AC85409
:103E4000BDE8F081002101804180818001814181B4
:103E50008181704710B50446ADA000F0A7F9B1A06C
:103E600000F0A4F9B4A000F0A1F9B6A000F09EF90A
:103E7000B5A000F09BF9B7A000F098F92146B6A0D4
:103E800000F094F904F124000246FFF7DBFFB3A130
:103E90001046FFF780FF0120608510BD2DE9F0413D
:103EA00005460F4600240C2606E000EB820138464A
:103EB00000F00CFB50B1641C04EB8402286A06EB92
:103EC000820141580029F0D10020B9E704EB8401B8
:103ED000286A06EB81014058B2E72DE9F047044615
:103EE0000E4625880020A188002934D0304600F0F5
:103EF000CDFA87B20023B4F804C030E06019827BA9
:103F00006D1CADB2032D00D900256019807B824263
:103F100002D8801A80B203E0C2F1FE01084480B2E8
:103F2000B8421AD1581C81B2002010E004EB0208FC
:103F300016F8009098F81280C84501D0002108E0DA
:103F4000521C92B2FD2A00D90022401C80B2B84215
:103F5000ECD311B10846BDE8F0875B1C9BB29C45D1
:103F6000CCD80020F7E72DE9F043B5B081460C46E8
:103F700000250A2609F1240021460746FFF7ADFF78
:103F800028B9207818B121463846FFF704FF2046AB
:103F900000F07CFAC82809D972A000F007F9494658
:103FA0006DA000F003F935B0BDE8F08365A12046AF
:103FB000FFF7ACFE804621464846FFF76FFF0746F5
:103FC000380013D0E8468DF800600DF10A00214654
:103FD00000F038FA204600F059FA0B30C4B201253F
:103FE00058A10020FFF792FE064620E000F0D6F828
:103FF00000682178405C10F0980F1AD0414660A00C
:1040000000F0D4F815E008F8054008EB040031464C
:1040100000F018FA304600F039FA2044401CC4B2CF
:104020006D1CEDB247A10020FFF770FE0646002E82
:10403000E9D117B169462846B847494646A000F07D
:10404000B5F8B0E72DE9F047074689464FF000087C
:10405000FF25002410E000EB8600494600F0E0F95F
:1040600040B1396A01EB8601401AA84202D2C5B2BA
:10407000884645B1641CE4B2386A04EB840610F843
:1040800026100029E7D1404665E7F0B583888B42CA
:104090001FD30388491E194489B2032900D9091F77
:1040A0008BB2C118897B5B1C9BB2032B00D9002308
:1040B00003449C7B0025A1420CD20B4605E0C618A8
:1040C0005F1AB67CD6555B1C9BB2A342F7D3581A35
:1040D0001554F0BD0B4605E0C6185F1AB67CD655E0
:1040E0005B1C9BB2FE2BF7D3002307E0C6185F1AB8
:1040F0001744B67C87F8FE605B1C9BB2A342F5D3E5
:10410000581A104480F8FE50F0BD000094010020C1
:104110006C732076657273696F6E20312E302E0DB0
:104120000A000000CFEEC4BFB1E0D2EBCAB1BCE4DC
:10413000CEAA3A200000000030393A32373A313105
:104140000000000020000000536570203233203250
:10415000303232000D0A0000257300006C732063BA
:104160006D6400007468697320636F6D6D616E64C7
:1041700020697320746F6F206C6F6E672E0A0000C9
:104180006E6F20636F6D6D616E64206E616D65642E
:104190003A2025730A0000007047000010B500F0B7
:1041A000D9F9001D10BD00BF7D2000000FB40449E7
:1041B00010B503AA029800F05BFC10BC5DF814FB7C
:1041C0004800002070B50C460546012A05D0287825
:1041D000800600D5EA69002302E0012305E05B1CAC
:1041E000934202D2E05C0028F9D1A869E618C01A0F
:1041F000A861286A184428622846AFF3008004E0CA
:10420000D5E9012114F8010B9047B442F8D32846B0
:10421000AFF3008070BD00002DE9F0410646002498
:1042200010687529314616A510D0AFF3008000281C
:1042300002DA404213A507E031688A0701D512A5CA
:1042400002E0490704D511A5012401E0AFF3008085
:1042500000210A2206F1240709E0B0FBF2FCB0FBC2
:10426000F2F302FB1C00303078541846491C002839
:10427000F3D123462A463046BDE8F04100F079B933
:10428000000000002D0000002B00000020000000B6
:1042900070B504460D4621461068AFF300802188B2
:1042A000090502D50F4A7A4402E00E4A7A440E32DA
:1042B000002104F1240305E000F00F060009965DDB
:1042C0005E54491C0028F7D120780023000704D54C
:1042D000702D02D009B1022311322046BDE8704092
:1042E00000F047B9223200002DE9F05F894604460C
:1042F0004FF0000ADFF824B1FB44C0F820A02046AC
:10430000E168884700287DD0252806D0D4E901211E
:104310009047206A401C2062F1E700255F46204656
:10432000E16888472028064607DB312E05D2B819F8
:1043300010F8200C08B10543F1E7A80701D525F0D6
:104340000405C4F81CA00027C4F818A02A2E09D020
:10435000304601F03DF938B304EB8708303EC8F829
:10436000186019E059F8041B204604EB870291619C
:10437000E1688847012F064618D1E069002820DA55
:1043800025F020051DE0D8F8180000EB800006EBB2
:1043900040003038C8F818002046E16888470646D3
:1043A00001F016F90028EED1012F0AD02E2E08D1E7
:1043B0002046E16888477F1C0646022F45F020050D
:1043C000C4DBA069002803DA404245F00105A06182
:1043D000E80701D025F01005A6B1A6F14100192883
:1043E00002D8203645F400654A463146204625600D
:1043F0004D46FBF7F7FE60B1012807D0ED1D25F013
:10440000070000E007E000F1080978E705F104097A
:1044100075E730467AE7206ABDE8F09FF831000082
:1044200030B505460B462A4613F8014B12F8010B2E
:1044300008B1A042F8D01CB1002802D06D1CF1E7F1
:10444000284630BD40EA0103024630B59B0710D133
:104450004FF0013400E008C208C91D1B9D4315EA56
:10446000C41FF8D013F0FF0102F8011B0DD01B0A86
:10447000F8E711F8013B002B02F8013B05D011F8D9
:10448000013B002B02F8013BF3D130BD10B5431CBA
:1044900002E010F8011B71B18107FAD14FF001322F
:1044A00002C88C1A8C4314EAC211F9D0C01A0A0649
:1044B00003D0C01E10BDC01A10BD0A0401D0801E5A
:1044C00010BD0902FCD0401E10BD00004FF0013CA1
:1044D00050F8042B51F8043B9A4221D1A2EB0C0373
:1044E000934313EACC1317D150F8042B51F8043B33
:1044F0009A4215D1A2EB0C03934313EACC130BD1D0
:1045000050F8042B51F8043B9A4209D1A2EB0C035A
:10451000934313EACC13DBD04FF00000704700BF89
:10452000D01A01BAB1FA81F101F0180122FA01F0B2
:10453000CB40C1F12001DBB2C0B2C01A2CFA01F3AA
:10454000D11A914311EAC311E6D170477047704701
:1045500070477047004870470405002010B500F010
:104560009DFA006810BD10B5044600F097FA04608B
:1045700010BD2DE9F0470D4699469246044600F1DC
:1045800024080168880604D5E06921F01001216043
:1045900000E00120A84201DD471B00E00027A169DF
:1045A0007A1902EB0900081AA0612078C00602D42B
:1045B0002046AFF30080002608E0D4E901211AF874
:1045C00006009047206A401C761C20624E45F4DBB2
:1045D0002078C0060AD52046AFF3008006E0D4E973
:1045E000012130209047206A401C2062381EA7F12C
:1045F0000107F4DC07E0D4E9012118F80500904731
:10460000206A401C2062281EA5F10105F3DC20462B
:10461000AFF300802078000602D50220BDE8F087C5
:104620000120FBE770472DE9FF4F0C461E464FF077
:10463000FF378BB0D2E90001DDF860800A908A462E
:10464000C1F30A5505B93D46002108464FF0000068
:10465000BAF1000F00F4400005DA00EB80004FF4DF
:10466000400101EA50004FEA9059B9F1010F00DD15
:10467000B9460A9850EA4A000ED044F61050A5F206
:10468000FF3545432F14B8F1000F1ED07542291E87
:104690001EDDC9F100021CE0B8F1010F4FF000006F
:1046A00001D0302103E0F24305E02154401CB04228
:1046B000FBDB30460022002121540B99C1F8088011
:1046C000C1E900200FB0BDE8F08FBD1B6D1CDEE717
:1046D0004A4600DA694206A800F082FA06AB93E87F
:1046E000070003AB83E8070050460A9900F01CFB63
:1046F0008DE80700A0F500501F3800900398002DAA
:104700000ADD42F21F014A460844002303A9039030
:10471000684600F085FD09E0A0F500504A461F38C4
:10472000002303A90390684600F08FFD8DE8070081
:104730000004000C03D04FF0FF30410800E01046A9
:10474000B8F1000F03D00022009215461EE0751E3E
:1047500005D400F0A7F9303262556D1EF9D5B34685
:104760000122084302D000227F1C04E02078302878
:1047700001D100227F1E002A099784D01DE0112D4F
:1047800007DA00F08FF9303262556D1C50EA0102F1
:10479000F5D1084302D00098C8B10EE00021681E90
:1047A00005E0235C625C63542254401E491C814234
:1047B000F7DBAB46A81B401E0990002004F80B0055
:1047C0000B98099AC0F80880C0E9002B7AE71126F7
:1047D0004FF0000857E72DE9F04F88460446D21DF8
:1047E00022F0070191B0D1E90001CDE90A0100F002
:1047F00063FE02460B98C00F01D02D2007E0206811
:10480000810701D52B2002E0202101EAC000032A04
:10481000099001D0072A05DB03464146204600F0F7
:104820009FF90BE12078800601D5E06900E00620C1
:10483000B8F1650F814606D0B8F1660F18D0B8F10F
:10484000670F70D131E00020B9F1110F009001DB4A
:10485000112301E009F101030AAA01A90CA8FFF73D
:10486000E2FEDDE90C70002609F10105834647E010
:1048700001204B4600904FF000470AAA01A90CA85E
:10488000FFF7D1FEDDE90DB00C995D46002610B9A9
:1048900009F101000D18B9EB050003D4C0F1FF3692
:1048A00009F10105A5EB09002BE0B9F1010F01DACF
:1048B0004FF001090020B9F1110F0090484601DDC9
:1048C000112300E003460AAA01A90CA8FFF7ABFEDA
:1048D000DDE90C704D4600268346207800070AD497
:1048E000AB4500DA5D4601A8012D04DD411911F840
:1048F000011C302907D04F4502DA17F1040F04DA02
:10490000012082460FE06D1EEEE7002F02DCED1B5A
:104910003E4403E0781CA84200DD7D1CB81B00F17A
:10492000010A4FF000472078000703D4AA4501DBB5
:104930004FF0FF3A0021B7F1004F0DF143088DF819
:10494000431024D002202B23002F01DA7F422D2395
:104950000A21021EA0F1010000DC5FB197FBF1FC0F
:1049600097FBF1F201FB1C7C17460CF1300C08F8A8
:1049700001CDEEE7A8F1010003702188090501D5FA
:10498000452100E06521A0F1010800F8011C09980B
:104990000FA9A1EB0807FF1D00B10120411901EB90
:1049A000EA70A1693844081A401EA0612078C00648
:1049B00002D42046AFF30080099828B1D4E9012140
:1049C0009047206A401C20622078C00622D52046ED
:1049D000AFF300801EE0002E04DBB34502DD01A82A
:1049E000805D00E03020D4E901219047206A401C1E
:1049F0002062761CAAF101005FEA000A0AD1FFF7E3
:104A0000A9FDC0680168405CD4E901219047206A93
:104A1000401C2062281EA5F10105DCDC07E0D4E97A
:104A2000012118F8010B9047206A401C2062381EB3
:104A3000A7F10107F3DC2046AFF30080032011B09B
:104A400041E610B5436913B1AFF3008001E0FFF711
:104A5000B9FB012010BD127800F124010A70002278
:104A60004A700122EDE711684FF0FF32E9E70000DC
:104A7000074B70B50D467B4400F05FF804462846AE
:104A800000F020F910B14FF0FF3070BD204670BD2E
:104A9000C5D1FFFF00487047E4040020004870477C
:104AA000E404002030B5B0F10A024FEA900E71F133
:104AB00000034EEA817EB0EB0E0061EB91014FEAFC
:104AC000101E4EEA017E10EB0E0041EB11114FEA71
:104AD000102E4EEA016E10EB0E0041EB11214FEA51
:104AE000104E4EEA014E10EB0E0041EB1141401802
:104AF00041F100014FEAD00040EA41704FEAD10194
:104B000010EB80054FEA810444EA907444EB010401
:104B10006D1944EB0404521BA3414FF0000348BF3E
:104B20000A3200D530BD401C41F1000130BD00000B
:104B300001694A1C02610878704700B58FB0CDE961
:104B400001310021059105497944CDE90310114651
:104B50006846FFF7C9FB0FB000BD0000E5FFFFFF8F
:104B60002DE9F0411F46044603260168072A01F497
:104B7000006004DB08B116A505E016A503E008B146
:104B800015A500E015A521F010002060A069C01E49
:104B9000A0610FB1401EA0612046AFF300804FB16D
:104BA000D4E9012138469047206A401C2062C01C8D
:104BB000206206E0206AFAE7D4E9012115F8010B2A
:104BC0009047761EF8D22046AFF30080BDE8F08112
:104BD0004E414E006E616E00494E4600696E6600A1
:104BE0002DE9F047814616468AB0354878440DC80D
:104BF0008DE80D0032487844801C03AC0DC884E871
:104C00000D0041F69B300844372190FBF1F290FBF8
:104C1000F1F5A5F1800501FB12041B3C02D56442AD
:104C2000012000E00020DFF898A080460027FA4429
:104C3000AAF1BE0A0EE0E0070AD03246684607EB4A
:104C4000470101230AEB810100F0FFFA8DE807001C
:104C500064107F1C002CEED1194F7F44AE3F19E049
:104C6000E80715D007EB04100DF1180A90E80E00C4
:104C70008AE80E00C068F04201D1981908903246C7
:104C8000012306A903A800F0E0FA03AB83E80700BC
:104C90006D10641C002DE3D14FF0010332466946CC
:104CA000B8F1000F03A802D000F0BAFA01E000F05A
:104CB000CCFAC9E90001C9F808200AB0BDE8F087BC
:104CC000BC2A0000007B00F0800070477546FFF7AB
:104CD000E1FEAE4605006946534620F007008546D2
:104CE00018B020B5FDF724F8BDE820404FF00006CD
:104CF0004FF000074FF000084FF0000B21F00701C4
:104D0000AC46ACE8C009ACE8C009ACE8C009ACE806
:104D1000C0098D46704710B50446AFF300802046A9
:104D2000BDE81040FBF787BA5FEA400C08BF91F07E
:104D3000000F4FEA8C234FEAC12243EA51514FEA58
:104D40001C5018BF00F5F0404FEA300018BF41F08A
:104D500000415FEA6C5C00F02980BCF1FF3F08BFB6
:104D600040F080407047130C06BF12044FF0100C47
:104D70004FF0000C130E04BF12020CF1080C130FBD
:104D800004BF12010CF1040C930F04BF92000CF14C
:104D9000020CD30F04BF52000CF1010C11464FF06E
:104DA0000002A0F11F00A0EB0C00704711F0004FB3
:104DB00008BF704731F000413FF4D5AF0B0C06BF80
:104DC00009044FF0100C4FF0000C0B0E04BF090249
:104DD0000CF1080C0B0F04BF09010CF1040C8B0F34
:104DE00004BF89000CF1020CCB0F04BF49000CF189
:104DF000010CCCF12003A0EB0C0022FA03F302FA21
:104E00000CF241EA030100F10100704720F07F4CF1
:104E100080EA030023F07F47ACEB070303F57C53E4
:104E200000F0004003F1FF032DE980494FEA154BE4
:104E300009B44FEA144325EA0B4E24EA03480FF263
:104E4000042606EB132749083E785FEA320203FB8B
:104E50000667C7F5000707FB06F64FEA54374FEA27
:104E6000D64606F1020607FB066CCCF1005C4FEA61
:104E70001C472CEA074C07FB06F40CFB06F504EB79
:104E800015464FEA961634BF00204FF000404FEA17
:104E9000D13706FB07FC4FEA1C4C0CFB0BF7D21B6F
:104EA00003FB0CF761EB07010CFB0EF7B0EB0740BF
:104EB00072EB17420CFB08F734BFA2EB0742B2EBD0
:104EC000074261EB17414FEA0C444FEA910706FB9A
:104ED00007FC4FEA1C4C0CFB0BF7B0EBC74072EB26
:104EE000573203FB0CF734BFA2EBC742B2EBC74209
:104EF00061EB57310CFB0EF7B0EBC70072EB57724A
:104F00000CFB08F734BFA2EBC702B2EBC70261EBA0
:104F10005771039F4FEA816141EA921104EBCC047F
:104F20004FEAD1374FEA826206FB07FC42EA901251
:104F30004FEA80604FEA1C4C0CFB0BF7D21B03FBC3
:104F40000CF761EB07010CFB0EF7B0EB074072EBBF
:104F500017420CFB08F734BFA2EB0742B2EB074243
:104F600061EB17414FEA8C554FEA910704EB9C2403
:104F700006FB07FC4FEA1C4C0CFB0BF7B0EBC740E1
:104F800072EB573203FB0CF734BFA2EBC742B2EB14
:104F9000C74261EB57310CFB0EF7B0EBC70072EB69
:104FA00057720CFB08F734BFA2EBC702B2EBC70283
:104FB00061EB577115EB4C254FEA816141EA921183
:104FC0004FEA82624FEAD13742EA901206FB07FCB1
:104FD00044F100044FEA80604FEA1C4C0CFB0BF7D5
:104FE000D21B03FB0CF761EB07010CFB0EF7B0EBD8
:104FF000074072EB17420CFB08F734BFA2EB0742E5
:10500000B2EB074261EB174115EB1C154FEA8131FA
:1050100041EA92414FEA823242EA90424FEA8030BE
:105020004FEA0C7644F1000448EA03434EEA0B4889
:105030004FF0000EB2EB080C71EB030724BF624681
:1050400039464EEB0E0E4FF0000B0018524149410D
:105050004BEB0B0BB2EB080C71EB03077BF1000B76
:1050600024BF624639464EEB0E0E4FF0000B00187F
:10507000524149414BEB0B0BB2EB080C71EB0307B0
:105080007BF1000B24BF624639464EEB0E0E51EA0F
:10509000020718BF46F0010616EB0E7655F1000226
:1050A00054F1000103D5BDE88901BDE80088BDE8E1
:1050B0008901BDE80048B619524141EB0101A3F155
:1050C0000103704780807F7E7D7C7B7A797877765C
:1050D00076757473727171706F6E6E6D6C6C6B6AD5
:1050E0006A69686867666665646463636261616073
:1050F000605F5F5E5E5D5D5C5C5B5B5A5A595958F0
:105100005857575656555555545453535252525159
:10511000515050504F4F4F4E4E4D4D4D4C4C4C4BAF
:105120004B4B4A4A4A4949494848484747474746F6
:105130004646454545444444444343434342424232
:1051400042414141002B9C4630D477002BD01CB506
:105150004FEA370703B44FF010004FF01001BAF1D7
:10516000000F06D0BCF1000FDCBF40F0080040F09B
:1051700008014FF000000FBCBDE810400BF1010B1F
:10518000BBF1010F08BF5FEA170722BF12F101024E
:1051900011F101014FF0004143F1000300F0004024
:1051A00043EA00007047F9D35708D0E746EA0646BD
:1051B00013F1400F4FEA16461FDD13F1200FDFBF3A
:1051C00016430A46002120335B42BED0C3F12007BC
:1051D00046EA064602FA07F74FEA164646EA070687
:1051E000C3F1200722FA03F201FA07F721FA03F1CB
:1051F0004FF0000342EA0702A7E746EA020646EA42
:1052000006464FEA164646EA0106BCBF46EA06468F
:10521000360C4FF000034FF000024FF0000194E70E
:105220002DE9804C9A46934670B491E8380007C83F
:1052300031EA400C48BF34EA430C03D5FFF7E6FDE2
:10524000FFF780FFF0BCBDE8008C2DE9804C9A464A
:10525000934670B491E8380007C810F0804F08BF3B
:1052600013F0804F03D100F005F8FFF76BFFF0BC9F
:10527000BDE8008C20F07F4780EA030023F07F4CDC
:1052800007EB0C03A3F57C5300F00040A3F1FE03F1
:1052900092F0000F00F0B38095F0000F00F07780DF
:1052A0002DE901494FEA11404FEA144621EA00482E
:1052B00000FB06FC24EA064708FB06F607FB08F895
:1052C00000FB07F718EB06484CEB164C4FEA124B65
:1052D00018EB07484FEA15464CEB174022EA0B4EF5
:1052E0000BFB06FC25EA06470EFB06F607FB0EFE47
:1052F0000BFB07F71EEB064E4CEB164C4FF000066F
:105300001EEB074E4CEB174B18EB0B0840F100005F
:1053100018EB0E0B58EB000840F100008F1A4FF00D
:1053200000013CBFC943661B14BFB5EB040C002150
:105330003CBFC943F61B4FEA17444EEA8E0E27EADC
:1053400004454FEA1C4704FB07622CEA074C05FBA7
:1053500007F70CFB05F604FB0CFC16EB074642EBCB
:10536000174216EB0C4642EB1C421BEB060658EBB1
:105370000202414146EA9E0601D5BDE80189B619FF
:10538000524141EB0101A3F10103BDE801894FEA5C
:1053900014454FEA114724EA054621EA074C05FB6C
:1053A00007F406FB07F70CFB06F105FB0CFC11EB01
:1053B000074144EB17444FEA124711EB0C4144EB11
:1053C0001C4422EA074C05FB07F206FB07F70CFB1F
:1053D00006F605FB0CFC16EB074642EB174216EBF4
:1053E0000C4642EB1C456A1854F1000148BF704757
:1053F000B619524141EB0101A3F10103704795F049
:10540000000F37D04FEA11424FEA144721EA024613
:1054100024EA074C02FB07F106FB07F70CFB06F436
:1054200002FB0CFC14EB074441EB17414FEA154714
:1054300014EB0C4441EB1C4125EA074C02FB07F539
:1054400006FB07F70CFB06F602FB0CFC16EB074607
:1054500045EB174516EB0C4645EB1C42121951F172
:10546000000148BF7047B619524141EB0101A3F159
:10547000010370474FEA14454FEA114724EA0546F5
:1054800021EA074C05FB07F106FB07F70CFB06F2C8
:105490004FF0000605FB0CFC12EB074241EB1741F5
:1054A00012EB0C4251EB1C4148BF7047921841EB84
:1054B0000101A3F101037047490050EAC12018BF60
:1054C00004204A0D18BF40F0010040F2FF72B2EB19
:1054D000515F08BF40F00200012808BF0520704757
:1054E0002DE9F0414F1E00EBC7010446D1E9000150
:1054F00015461E4637F006020DD02A46334601F007
:1055000003FA7F1E04EBC703D3E9002300F0E8FE93
:1055100037F00602F1D1022F25D0042F13D0062F29
:1055200018BFBDE8F0812A46334601F0EDF9D4E911
:105530000A2300F0D5FE2A46334601F0E5F9D4E906
:10554000082300F0CDFE2A46334601F0DDF9D4E908
:10555000062300F0C5FE2A46334601F0D5F9D4E90A
:10556000042300F0BDFE2A46334601F0CDF9D4E90C
:10557000022300F0B5FE2A46334601F0C5F9D4E90E
:105580000023BDE8F04100F0ABBE0000002213464E
:105590001046014900F060BF0000F03F012201F019
:1055A000DEBE00F09DBE002213461046114600F0FC
:1055B00053BF40F2013200204FF0E04101F0CFBE76
:1055C000024A0020110701F0CABE000001FDFFFFE2
:1055D00030380A2801D201207047002070470000AF
:1055E0002DE9F84F04460D4621F000400091734923
:1055F000814211DC7249884201DC06D12CB120467F
:105600002946BDE8F84FFFF7C9BF6E48002DCCBF53
:105610006D496E49BDE8F88F6D49814211DD6D49D4
:105620008142D8BF4FF0FF366DDD20462946FFF797
:1056300043FF042808BFFFF7C3FF20462946BDE803
:10564000F88F6549654F25F00045814233DD644997
:10565000814219DD002632464FF08043204629461C
:1056600000F03EFE80468A4601222046294601F08F
:1056700076FE00223B4601F06DFB4246534600F0A9
:10568000EBFE04460D463EE001260022BA463B46AC
:105690002046294600F024FE80460F46002253464D
:1056A0002046294601F056FB42463B4600F0D4FE18
:1056B00004460D4627E04B4981421BDDDFF828A157
:1056C0000226002253462046294601F01DF90022F9
:1056D0003B4600F005FE80460F460022534620461A
:1056E000294601F037FB42463B4600F0B5FE044632
:1056F0000D4608E0032622462B4600203B4900F0D9
:10570000ABFE04460D4622462B461046194601F0D4
:10571000FBF88B46824602460B4601F0F5F8074639
:105720000246334888460B4606217844FFF7D8FEE8
:1057300052465B4601F0E8F882462E488B463A46D0
:10574000434605217844FFF7CBFE3A46434601F035
:10575000DBF802460B46002E504659460CDA00F0A4
:10576000BFFD22462B4601F0CFF801B022462B4662
:10577000BDE8F04F01F0FCB900F0B2FD22462B4627
:1057800001F0C2F81C4A7A4402EBC603D3E90023B5
:1057900001F0E0FA22462B4601F0DCFA174A7A447F
:1057A00002EBC603D3E9002301F0E2F9009A002AD4
:1057B000B8BF81F00041BDE8F88F00000000104440
:1057C0000000F07F182D4454FB21F93FFB21F9BF65
:1057D0000000DC3F0000203E0000F33F0000F03FEF
:1057E0000000E63F008003400000F83F0000F0BFEB
:1057F000421E0000001E00009E1D0000661D0000ED
:105800002DE9F04D1D460C4698B0174621F0004199
:1058100023F00043002814BF4FF0010C4FF0000CA0
:105820000CEB440CFE4A0CEB02064FEA620C664598
:105830002BD33E0018BF012606EB45061644F94A55
:10584000964222D3F84A53EA070C02D0944205D17B
:1058500048B918B000201146BDE8F08D002808BFF7
:105860004FF0000C01D04FF0010C0CEB440212F58C
:10587000001F0AD8002F14BF4FF0010C4FF0000C8E
:105880000CEB450212F5001F07D918B03A462B461B
:105890002146BDE8F04DFFF784BE0022DFF88CA35F
:1058A000002CB8BF534526DADFF884C36345A8BF90
:1058B000022220DADFF870C39C451CDCDFF874C3D9
:1058C0000CEB235CBCF1140F08DDCCF1340627FA95
:1058D00006FC0CFA06F6BE420DD108E05FB9CCF129
:1058E000140623FA06FC0CFA06F69E4203D10CF0CD
:1058F0000102C2F1020251EA000C19D1002D17DA9F
:10590000002C18BF022A01D0012A07D00220FEF77E
:105910002AFE18B0BDE8F04DFFF738BE0220FEF7B2
:1059200022FEFFF733FE18B081F00041BDE8F08D94
:10593000B7F1000C6CD1534525D104F1804212F52A
:10594000801201BF00280020B74918B008BFBDE889
:10595000F08DB548884207DC002DA1BF604629467E
:1059600018B0BDE8F08D07E0281E05DA80F0004190
:1059700018B06046BDE8F08DAF497944D1E9000127
:1059800018B0BDE8F08DDFF8A0C2634525D1002D29
:105990001FDA19B1514512D1D8B909E0002840F0F9
:1059A000EC82A24A214618B062F31E01BDE8F08DD8
:1059B0000020214618B060F31E01BDE8F08D08DA22
:1059C00018B02346BDE8F04D02460020614600F0C5
:1059D00043BD18B02146BDE8F08D514518DAB5F148
:1059E000804F0DD0A5F1005CBCF1FF5C10D1B4F18B
:1059F000000C0DDB18B06146BDE8F04D00F0ECBBCB
:105A0000234618B00246BDE8F04D194600F07CBFB1
:105A1000060024F0004C3BD1D9B1514533D1002CC4
:105A200006DD002DA1BF0020514618B0BDE8F08D65
:105A3000002C01DD002D1BDB002C13DA002D11DB07
:105A4000012A4FF0000014BF78497C4918B0BDE826
:105A5000F08D022A18BF002C0AD0012A08D1002C90
:105A600006DA0AE0002CB8BF002D11DA012A04D0B2
:105A7000002018B00146BDE8F08D18B000204FF0AE
:105A80000041BDE8F08DA1F14050B0F17F601AD027
:105A9000012000EBE47050EA020421D0624C521E57
:105AA0004FF0000B104304BF4FF0000B644C6548EF
:105AB00083427CDD644A654893421FDD884217DBE0
:105AC000002D25DB37E0002C00DA4AB1022A0CBF9A
:105AD00001204FF0FF3018B0BDE8F04D00F0ADBE32
